{
  "contractName": "BuildingFactory",
  "abi": [
    {
      "constant": true,
      "inputs": [
        {
          "name": "",
          "type": "uint256"
        }
      ],
      "name": "buildings",
      "outputs": [
        {
          "name": "name",
          "type": "string"
        },
        {
          "name": "buildingLocationAddress",
          "type": "string"
        }
      ],
      "payable": false,
      "stateMutability": "view",
      "type": "function"
    },
    {
      "constant": true,
      "inputs": [
        {
          "name": "",
          "type": "uint256"
        }
      ],
      "name": "buildingToOwner",
      "outputs": [
        {
          "name": "",
          "type": "address"
        }
      ],
      "payable": false,
      "stateMutability": "view",
      "type": "function"
    },
    {
      "constant": true,
      "inputs": [],
      "name": "owner",
      "outputs": [
        {
          "name": "",
          "type": "address"
        }
      ],
      "payable": false,
      "stateMutability": "view",
      "type": "function"
    },
    {
      "constant": false,
      "inputs": [
        {
          "name": "newOwner",
          "type": "address"
        }
      ],
      "name": "transferOwnership",
      "outputs": [],
      "payable": false,
      "stateMutability": "nonpayable",
      "type": "function"
    },
    {
      "anonymous": false,
      "inputs": [
        {
          "indexed": false,
          "name": "buildingId",
          "type": "uint256"
        },
        {
          "indexed": false,
          "name": "name",
          "type": "string"
        },
        {
          "indexed": false,
          "name": "buildingLocationAddress",
          "type": "string"
        }
      ],
      "name": "NewBuilding",
      "type": "event"
    }
  ],
  "bytecode": "0x6060604052336000806101000a81548173ffffffffffffffffffffffffffffffffffffffff021916908373ffffffffffffffffffffffffffffffffffffffff160217905550610424806100536000396000f300606060405260043610610062576000357c0100000000000000000000000000000000000000000000000000000000900463ffffffff1680634c96a062146100675780635192b291146101a95780638da5cb5b1461020c578063f2fde38b14610261575b600080fd5b341561007257600080fd5b610088600480803590602001909190505061029a565b6040518080602001806020018381038352858181546001816001161561010002031660029004815260200191508054600181600116156101000203166002900480156101155780601f106100ea57610100808354040283529160200191610115565b820191906000526020600020905b8154815290600101906020018083116100f857829003601f168201915b50508381038252848181546001816001161561010002031660029004815260200191508054600181600116156101000203166002900480156101985780601f1061016d57610100808354040283529160200191610198565b820191906000526020600020905b81548152906001019060200180831161017b57829003601f168201915b505094505050505060405180910390f35b34156101b457600080fd5b6101ca60048080359060200190919050506102cb565b604051808273ffffffffffffffffffffffffffffffffffffffff1673ffffffffffffffffffffffffffffffffffffffff16815260200191505060405180910390f35b341561021757600080fd5b61021f6102fe565b604051808273ffffffffffffffffffffffffffffffffffffffff1673ffffffffffffffffffffffffffffffffffffffff16815260200191505060405180910390f35b341561026c57600080fd5b610298600480803573ffffffffffffffffffffffffffffffffffffffff16906020019091905050610323565b005b6001818154811015156102a957fe5b9060005260206000209060020201600091509050806000019080600101905082565b60026020528060005260406000206000915054906101000a900473ffffffffffffffffffffffffffffffffffffffff1681565b6000809054906101000a900473ffffffffffffffffffffffffffffffffffffffff1681565b6000809054906101000a900473ffffffffffffffffffffffffffffffffffffffff1673ffffffffffffffffffffffffffffffffffffffff163373ffffffffffffffffffffffffffffffffffffffff1614151561037e57600080fd5b600073ffffffffffffffffffffffffffffffffffffffff168173ffffffffffffffffffffffffffffffffffffffff161415156103f557806000806101000a81548173ffffffffffffffffffffffffffffffffffffffff021916908373ffffffffffffffffffffffffffffffffffffffff1602179055505b505600a165627a7a72305820bf06fd091da107cd3f5c20571b349838b9d48ead929f22681b5c773e173a328c0029",
  "source": "pragma solidity ^0.4.17;\n\nimport \"./ownable.sol\";\nimport \"./safemath.sol\";\n\ncontract BuildingFactory is Ownable {\n\n    using SafeMath for uint256;\n\n    event NewBuilding(uint buildingId, string name, string buildingLocationAddress);\n\n    struct Building {\n        string name;\n        string buildingLocationAddress;\n    }\n\n    Building[] public buildings;\n\n    mapping (uint => address) public buildingToOwner;\n    mapping (address => uint) ownerBuildingCount;\n\n    function _createBuilding(string _name, string _buildingLocationAddress) internal {\n        uint id = buildings.push(Building(_name, _buildingLocationAddress)) - 1;\n        buildingToOwner[id] = msg.sender;\n        ownerBuildingCount[msg.sender]++;\n        NewBuilding(id, _name, _buildingLocationAddress);\n    }\n\n}\n",
  "sourcePath": "/Users/vladislavivanov/Projects/LimeProducts/CryptoBuildings/contracts/BuildingFactory.sol",
  "compiler": {
    "name": "solc",
    "version": "0.4.19+commit.c4cbbb05.Emscripten.clang"
  },
  "schemaVersion": "1.0.1",
  "updatedAt": "2018-03-25T11:04:06.404Z"
}